{
  "_format": "hh-sol-artifact-1",
  "contractName": "Audit",
  "sourceName": "contracts/Audit.sol",
  "abi": [
    {
      "inputs": [],
      "name": "InvalidEmail",
      "type": "error"
    },
    {
      "inputs": [],
      "name": "InvalidFileId",
      "type": "error"
    },
    {
      "anonymous": false,
      "inputs": [
        {
          "indexed": true,
          "internalType": "address",
          "name": "user",
          "type": "address"
        },
        {
          "indexed": false,
          "internalType": "string",
          "name": "email",
          "type": "string"
        },
        {
          "indexed": false,
          "internalType": "string",
          "name": "fileId",
          "type": "string"
        },
        {
          "indexed": false,
          "internalType": "uint256",
          "name": "timestamp",
          "type": "uint256"
        }
      ],
      "name": "DownloadFile",
      "type": "event"
    },
    {
      "anonymous": false,
      "inputs": [
        {
          "indexed": true,
          "internalType": "address",
          "name": "user",
          "type": "address"
        },
        {
          "indexed": false,
          "internalType": "string",
          "name": "email",
          "type": "string"
        },
        {
          "indexed": false,
          "internalType": "string",
          "name": "fileId",
          "type": "string"
        },
        {
          "indexed": true,
          "internalType": "address",
          "name": "owner",
          "type": "address"
        },
        {
          "indexed": false,
          "internalType": "uint256",
          "name": "timestamp",
          "type": "uint256"
        }
      ],
      "name": "DownloadSharedFile",
      "type": "event"
    },
    {
      "anonymous": false,
      "inputs": [
        {
          "indexed": true,
          "internalType": "address",
          "name": "user",
          "type": "address"
        },
        {
          "indexed": false,
          "internalType": "string",
          "name": "email",
          "type": "string"
        },
        {
          "indexed": false,
          "internalType": "string",
          "name": "fileId",
          "type": "string"
        },
        {
          "indexed": true,
          "internalType": "address",
          "name": "recipient",
          "type": "address"
        },
        {
          "indexed": false,
          "internalType": "uint256",
          "name": "timestamp",
          "type": "uint256"
        }
      ],
      "name": "ShareFile",
      "type": "event"
    },
    {
      "anonymous": false,
      "inputs": [
        {
          "indexed": true,
          "internalType": "address",
          "name": "user",
          "type": "address"
        },
        {
          "indexed": false,
          "internalType": "string",
          "name": "email",
          "type": "string"
        },
        {
          "indexed": false,
          "internalType": "string",
          "name": "fileId",
          "type": "string"
        },
        {
          "indexed": false,
          "internalType": "uint256",
          "name": "timestamp",
          "type": "uint256"
        }
      ],
      "name": "UploadFile",
      "type": "event"
    },
    {
      "inputs": [
        {
          "internalType": "address",
          "name": "user",
          "type": "address"
        },
        {
          "internalType": "string",
          "name": "email",
          "type": "string"
        },
        {
          "internalType": "string",
          "name": "fileId",
          "type": "string"
        }
      ],
      "name": "logDownload",
      "outputs": [],
      "stateMutability": "nonpayable",
      "type": "function"
    },
    {
      "inputs": [
        {
          "internalType": "address",
          "name": "user",
          "type": "address"
        },
        {
          "internalType": "string",
          "name": "email",
          "type": "string"
        },
        {
          "internalType": "string",
          "name": "fileId",
          "type": "string"
        },
        {
          "internalType": "address",
          "name": "ownerAddr",
          "type": "address"
        }
      ],
      "name": "logDownloadShared",
      "outputs": [],
      "stateMutability": "nonpayable",
      "type": "function"
    },
    {
      "inputs": [
        {
          "internalType": "address",
          "name": "user",
          "type": "address"
        },
        {
          "internalType": "string",
          "name": "email",
          "type": "string"
        },
        {
          "internalType": "string",
          "name": "fileId",
          "type": "string"
        },
        {
          "internalType": "address",
          "name": "recipient",
          "type": "address"
        }
      ],
      "name": "logShare",
      "outputs": [],
      "stateMutability": "nonpayable",
      "type": "function"
    },
    {
      "inputs": [
        {
          "internalType": "address",
          "name": "user",
          "type": "address"
        },
        {
          "internalType": "string",
          "name": "email",
          "type": "string"
        },
        {
          "internalType": "string",
          "name": "fileId",
          "type": "string"
        }
      ],
      "name": "logUpload",
      "outputs": [],
      "stateMutability": "nonpayable",
      "type": "function"
    }
  ],
  "bytecode": "0x6080604052348015600f57600080fd5b506108268061001f6000396000f3fe608060405234801561001057600080fd5b506004361061004c5760003560e01c80635cf17f4814610051578063888c3ff11461006d5780638eeeda4714610089578063ddebc1f6146100a5575b600080fd5b61006b600480360381019061006691906105f4565b6100c1565b005b610087600480360381019061008291906105f4565b6101c8565b005b6100a3600480360381019061009e919061069b565b6102cf565b005b6100bf60048036038101906100ba919061069b565b6103be565b005b61015383838080601f016020809104026020016040519081016040528093929190818152602001838380828437600081840152601f19601f8201169050808301925050505050505086868080601f016020809104026020016040519081016040528093929190818152602001838380828437600081840152601f19601f820116905080830192505050505050506104ad565b8073ffffffffffffffffffffffffffffffffffffffff168673ffffffffffffffffffffffffffffffffffffffff167f5341e9fb56cea2773515a8e35c33c375b6e2eee98d6ddaafaaf24410a4cc97b287878787426040516101b89594939291906107a7565b60405180910390a3505050505050565b61025a83838080601f016020809104026020016040519081016040528093929190818152602001838380828437600081840152601f19601f8201169050808301925050505050505086868080601f016020809104026020016040519081016040528093929190818152602001838380828437600081840152601f19601f820116905080830192505050505050506104ad565b8073ffffffffffffffffffffffffffffffffffffffff168673ffffffffffffffffffffffffffffffffffffffff167f319c65ce085132a3a18051fea9ff58e8e51dbf235117c67693724337c5983bbf87878787426040516102bf9594939291906107a7565b60405180910390a3505050505050565b61036182828080601f016020809104026020016040519081016040528093929190818152602001838380828437600081840152601f19601f8201169050808301925050505050505085858080601f016020809104026020016040519081016040528093929190818152602001838380828437600081840152601f19601f820116905080830192505050505050506104ad565b8473ffffffffffffffffffffffffffffffffffffffff167ff421fae0972f3dfecd6988f3e7d0ab11f79cfb243dce84c8cb457baa445ecbf885858585426040516103af9594939291906107a7565b60405180910390a25050505050565b61045082828080601f016020809104026020016040519081016040528093929190818152602001838380828437600081840152601f19601f8201169050808301925050505050505085858080601f016020809104026020016040519081016040528093929190818152602001838380828437600081840152601f19601f820116905080830192505050505050506104ad565b8473ffffffffffffffffffffffffffffffffffffffff167f590d4fd3753d51441e8f35b63f3dc7f1d6303a19692dd4378acbc7749ecf8b0c858585854260405161049e9594939291906107a7565b60405180910390a25050505050565b60008251036104e8576040517f56b77fdc00000000000000000000000000000000000000000000000000000000815260040160405180910390fd5b6000815103610523576040517f38ed39fa00000000000000000000000000000000000000000000000000000000815260040160405180910390fd5b5050565b600080fd5b600080fd5b600073ffffffffffffffffffffffffffffffffffffffff82169050919050565b600061055c82610531565b9050919050565b61056c81610551565b811461057757600080fd5b50565b60008135905061058981610563565b92915050565b600080fd5b600080fd5b600080fd5b60008083601f8401126105b4576105b361058f565b5b8235905067ffffffffffffffff8111156105d1576105d0610594565b5b6020830191508360018202830111156105ed576105ec610599565b5b9250929050565b6000806000806000806080878903121561061157610610610527565b5b600061061f89828a0161057a565b965050602087013567ffffffffffffffff8111156106405761063f61052c565b5b61064c89828a0161059e565b9550955050604087013567ffffffffffffffff81111561066f5761066e61052c565b5b61067b89828a0161059e565b9350935050606061068e89828a0161057a565b9150509295509295509295565b6000806000806000606086880312156106b7576106b6610527565b5b60006106c58882890161057a565b955050602086013567ffffffffffffffff8111156106e6576106e561052c565b5b6106f28882890161059e565b9450945050604086013567ffffffffffffffff8111156107155761071461052c565b5b6107218882890161059e565b92509250509295509295909350565b600082825260208201905092915050565b82818337600083830152505050565b6000601f19601f8301169050919050565b600061076d8385610730565b935061077a838584610741565b61078383610750565b840190509392505050565b6000819050919050565b6107a18161078e565b82525050565b600060608201905081810360008301526107c2818789610761565b905081810360208301526107d7818587610761565b90506107e66040830184610798565b969550505050505056fea2646970667358221220ce3a75f085a36b374a4c15a504afcd6fa8abc94c85017c1f633652f65102508a64736f6c634300081c0033",
  "linkReferences": {},
  "deployedLinkReferences": {}
}