{
  "_format": "hh-sol-artifact-1",
  "contractName": "Audit",
  "sourceName": "contracts/Audit.sol",
  "abi": [
    {
      "anonymous": false,
      "inputs": [
        {
          "indexed": true,
          "internalType": "address",
          "name": "user",
          "type": "address"
        },
        {
          "indexed": false,
          "internalType": "string",
          "name": "fileId",
          "type": "string"
        },
        {
          "indexed": false,
          "internalType": "enum Audit.ActionType",
          "name": "action",
          "type": "uint8"
        }
      ],
      "name": "FileActionEvent",
      "type": "event"
    },
    {
      "inputs": [
        {
          "internalType": "address",
          "name": "user",
          "type": "address"
        },
        {
          "internalType": "string",
          "name": "fileId",
          "type": "string"
        },
        {
          "internalType": "enum Audit.ActionType",
          "name": "action",
          "type": "uint8"
        }
      ],
      "name": "logAction",
      "outputs": [],
      "stateMutability": "nonpayable",
      "type": "function"
    }
  ],
  "bytecode": "0x6080604052348015600f57600080fd5b506104f98061001f6000396000f3fe608060405234801561001057600080fd5b506004361061002b5760003560e01c8063793cc6cd14610030575b600080fd5b61004a600480360381019061004591906102c2565b61004c565b005b6000825111610090576040517f08c379a00000000000000000000000000000000000000000000000000000000081526004016100879061038e565b60405180910390fd5b8273ffffffffffffffffffffffffffffffffffffffff167f48a723cfe0a4fe47fa6c8791fe31fb356df8c62b367620249ede5b2642f4026b83836040516100d8929190610493565b60405180910390a2505050565b6000604051905090565b600080fd5b600080fd5b600073ffffffffffffffffffffffffffffffffffffffff82169050919050565b6000610124826100f9565b9050919050565b61013481610119565b811461013f57600080fd5b50565b6000813590506101518161012b565b92915050565b600080fd5b600080fd5b6000601f19601f8301169050919050565b7f4e487b7100000000000000000000000000000000000000000000000000000000600052604160045260246000fd5b6101aa82610161565b810181811067ffffffffffffffff821117156101c9576101c8610172565b5b80604052505050565b60006101dc6100e5565b90506101e882826101a1565b919050565b600067ffffffffffffffff82111561020857610207610172565b5b61021182610161565b9050602081019050919050565b82818337600083830152505050565b600061024061023b846101ed565b6101d2565b90508281526020810184848401111561025c5761025b61015c565b5b61026784828561021e565b509392505050565b600082601f83011261028457610283610157565b5b813561029484826020860161022d565b91505092915050565b600281106102aa57600080fd5b50565b6000813590506102bc8161029d565b92915050565b6000806000606084860312156102db576102da6100ef565b5b60006102e986828701610142565b935050602084013567ffffffffffffffff81111561030a576103096100f4565b5b6103168682870161026f565b9250506040610327868287016102ad565b9150509250925092565b600082825260208201905092915050565b7f496e76616c69642066696c654964000000000000000000000000000000000000600082015250565b6000610378600e83610331565b915061038382610342565b602082019050919050565b600060208201905081810360008301526103a78161036b565b9050919050565b600081519050919050565b60005b838110156103d75780820151818401526020810190506103bc565b60008484015250505050565b60006103ee826103ae565b6103f88185610331565b93506104088185602086016103b9565b61041181610161565b840191505092915050565b7f4e487b7100000000000000000000000000000000000000000000000000000000600052602160045260246000fd5b6002811061045c5761045b61041c565b5b50565b600081905061046d8261044b565b919050565b600061047d8261045f565b9050919050565b61048d81610472565b82525050565b600060408201905081810360008301526104ad81856103e3565b90506104bc6020830184610484565b939250505056fea2646970667358221220423475e9c5c6ca8f15540300b940bfd84ca7f6e36f192c479e0eb1695187333f64736f6c634300081c0033",
  "linkReferences": {},
  "deployedLinkReferences": {}
}